:0400000007EF00F016
:0A00080001824EED06F090EF06F0C5
:1008000000930F810F8A0F0101940F820F8B0F014C
:1008100000940F820F8B0F0200940F820F8B0F0436
:10082000000000030004000300003F6A3F50080D71
:10083000F3CF39F0070E39263950010F3A6E3AC01E
:10084000F6FF080EF76E0800F550E806D8A42BEF67
:1008500004F02DEF04F054EF04F03F50080DF3CFF7
:1008600039F0060E39263950010F3A6E3AC0F6FFBC
:10087000080EF76E0800F5CF3BF03F50080DF3501F
:10088000010F3C6E3CC0F6FF080EF76E0900F5CF75
:100890003DF00900F5CF3EF03DC0D9FF3EC0DAFF84
:1008A0003B50DF127AEF04F03F50080DF3CF39F0E0
:1008B000060E39263950010F3A6E3AC0F6FF080E7F
:1008C000F76E0800F550FF0A3B6E3F50080DF350DD
:1008D000010F3C6E3CC0F6FF080EF76E0900F5CF25
:1008E0003DF00900F5CF3EF03DC0D9FF3EC0DAFF34
:1008F0003B50DF163F2A030E3F6481EF04F083EF85
:1009000004F016EF04F01200476A4750040DF3504C
:10091000210F416E41C0F6FF080EF76E0800F5503A
:100920002FEC05F0466E47502B0FD96EDA6A465011
:10093000DE18D8A49EEF04F0A0EF04F0D9EF04F085
:100940004750040DF3CF41F0020E41264150210FD4
:10095000426E42C0F6FF080EF76E4750020DF3508C
:10096000250FD96EDA6A0900F550DE5C0900F550F2
:10097000DE58D8B0BEEF04F0C0EF04F0CBEF04F0C7
:100980004750020DF350250FD96EDA6ADE2A000EA9
:10099000DD22E7EF04F046C039F047509BEC05F04C
:1009A000456E4750290FD96EDA6A45C0DFFFE7EF81
:1009B00004F04750020DF350250FD96EDA6ADE6A53
:1009C000DD6A47502B0FD96EDA6A46C0DFFF472A2F
:1009D000010E4764EEEF04F0F0EF04F085EF04F051
:1009E0001200326A25EF05F03250070DF350060F62
:1009F000D96EDA6ADE2A000EDD223250070DF3507E
:100A0000040FD96EDA6A3250070DF350060FE16E0B
:100A1000E26ADE50E65CDE50E658D8A012EF05F040
:100A200014EF05F024EF05F03250070DF350060FD8
:100A3000D96EDA6ADE6ADD6A3250070DF350080FAC
:100A4000D96EDA6A010EDF6E322A2D50325CD8A0E0
:100A50002CEF05F02EEF05F0F4EF04F01200406EDD
:100A60004050080DF3CF39F0060E39263950010FEA
:100A70003A6E3AC0F6FF080EF76E0800F5CF3BF06D
:100A80004050080DF3CF3CF0020E3C263C50010FC5
:100A90003D6E3DC0F6FF080EF76E0900F5CF3EF043
:100AA0000900F5CF3FF03EC0D9FF3FC0DAFFDF506D
:100AB0003B140009D8B45FEF05F061EF05F064EF77
:100AC00005F0010E65EF05F0000E1200496A91EF86
:100AD00005F04950070DF350080FD96EDA6ADE04AD
:100AE000D8A475EF05F077EF05F090EF05F04950C9
:100AF000070DF350080FD96EDA6ADF6A4950070D07
:100B0000F350020FD96EDA6A02D890EF05F00500B3
:100B1000FA6EDE50FD6EDE50FE6EFF6AFA50120075
:100B2000492A2D50495CD8A098EF05F09AEF05F0BE
:100B300069EF05F012003C6E3C50040DF3CF3AF023
:100B4000010E3A263A50210F3B6E3BC0F6FF080ECD
:100B5000F76E0800F550E806D8A4B1EF05F0B3EF42
:100B600005F0BFEF05F03904D8B4B9EF05F0BCEFDC
:100B700005F0010EBDEF05F0000EC9EF05F039508C
:100B8000D8B4C5EF05F0C8EF05F0010EC9EF05F0C8
:100B9000000E1200050E2D60D0EF05F0D2EF05F02B
:100BA000F5EF05F02D50070DF350020FD96EDA6AFC
:100BB00039C0DEFF3AC0DDFF2D50070DF350040FA2
:100BC000D96EDA6A3BC0DEFF3CC0DDFF2D50070D59
:100BD000F350060FD96EDA6ADE6ADD6A2D50070D12
:100BE000F350080FD96EDA6ADF6A2D2A1200436AC1
:100BF0004350040DF350210F416E41C0F6FF080E23
:100C0000F76E0800F5502FEC05F0426E43502B0FA5
:100C1000D96EDA6A42C0DFFF4350020DF350250F50
:100C2000D96EDA6ADE6ADD6A4350290FD96EDA6A54
:100C3000DF6A432A010E436420EF06F022EF06F03C
:100C4000F8EF05F01200396A3950070DF350020F22
:100C5000D96EDA6ADE6ADD6A3950070DF350040F87
:100C6000D96EDA6ADE6ADD6A3950070DF350060F75
:100C7000D96EDA6ADE6ADD6A3950070DF350080F63
:100C8000D96EDA6ADF6A392A040E39644AEF06F04F
:100C90004CEF06F024EF06F02D6A12000600E1CFBB
:100CA00033F0E2CF34F0D9CF35F0DACF36F0F3CFEE
:100CB00037F0F4CF38F0F2A460EF06F062EF06F000
:100CC00067EF06F0AFEC06F0F1EC04F0F29438C0F8
:100CD000F4FF37C0F3FF36C0DAFF35C0D9FF34C0A8
:100CE000E2FF33C0E1FF0192110015EC04F0F7ECD4
:100CF00005F023EC06F09DEC06F0BAEC06F0B7EC3C
:100D000006F0680E396E0D0E3A6E3C6A0A0E3B6EA6
:100D1000CAEC05F066EC05F08AEF06F007EF00F08C
:100D200000EE02F02C0EEE6AE806FDE10190019261
:100D3000000EF86E000175EF06F0D56AD59CD59AC5
:100D4000D596D550F80B0109D56EAAEC06F0F294B1
:100D5000F28A1200FB0ED76E1E0ED66E1200FB0E2C
:100D6000D76E1E0ED66E120084EC04F01200F28EC6
:080D7000F28C1200D58E120076
:020000040030CA
:08000000000C1E1EFF8181FFB0
:00000001FF
