:0400000007EF00F016
:0A0008000182B1ED06F014EF07F0DD
:1008000000930F810F8A0F0101940F820F8B0F014C
:1008100000940F820F8B0F0200940F820F8B0F0436
:1008200000930F810F8A0F020100000300040003F0
:1008300000003F6A3F50080DF3CF39F0070E39260C
:100840003950010F3A6E3AC0F6FF080EF76E0800F5
:10085000F550E806D8A42FEF04F031EF04F058EF7C
:1008600004F03F50080DF3CF39F0060E3926395009
:10087000010F3A6E3AC0F6FF080EF76E0800F5CF8A
:100880003BF03F50080DF350010F3C6E3CC0F6FFAB
:10089000080EF76E0900F5CF3DF00900F5CF3EF0E8
:1008A0003DC0D9FF3EC0DAFF3B50DF127EEF04F0BF
:1008B0003F50080DF3CF39F0060E39263950010F9D
:1008C0003A6E3AC0F6FF080EF76E0800F550FF0AC0
:1008D0003B6E3F50080DF350010F3C6E3CC0F6FFDD
:1008E000080EF76E0900F5CF3DF00900F5CF3EF098
:1008F0003DC0D9FF3EC0DAFF3B50DF163F2A040E51
:100900003F6485EF04F087EF04F01AEF04F0120063
:10091000476A4750040DF350290F416E41C0F6FF5E
:10092000080EF76E0800F55092EC05F0466E475041
:100930002B0FD96EDA6A4650DE18D8A4A2EF04F065
:10094000A4EF04F0DDEF04F04750040DF3CF41F0C5
:10095000020E41264150290F426E42C0F6FF080E9A
:10096000F76E4750020DF350250FD96EDA6A090071
:10097000F550DE5C0900F550DE58D8B0C2EF04F047
:10098000C4EF04F0CFEF04F04750020DF350250FF1
:10099000D96EDA6ADE2A000EDD22EBEF04F046C0E3
:1009A00039F04750FEEC05F0456E4750290FD96EDF
:1009B000DA6A45C0DFFFEBEF04F04750020DF35059
:1009C000250FD96EDA6ADE6ADD6A47502B0FD96EC1
:1009D000DA6A46C0DFFF472A010E4764F2EF04F0EF
:1009E000F4EF04F089EF04F01200416E3904D8A44A
:1009F000FCEF04F0FEEF04F029EF05F04150080D84
:100A0000F3CF3AF0060E3A263A50010F3B6E3BC048
:100A1000F6FF080EF76E0800F5CF3CF04150080DC8
:100A2000F3CF3DF0040E3D263D50010F3E6E3EC01B
:100A3000F6FF080EF76E0900F5CF3FF00900F5CF7D
:100A400040F03FC0D9FF40C0DAFF3C50DF1253EF07
:100A500005F04150080DF3CF3AF0060E3A263A5011
:100A6000010F3B6E3BC0F6FF080EF76E0800F55015
:100A7000FF0A3C6E4150080DF3CF3DF0040E3D26B9
:100A80003D50010F3E6E3EC0F6FF080EF76E0900A6
:100A9000F5CF3FF00900F5CF40F03FC0D9FF40C08F
:100AA000DAFF3C50DF161200326A88EF05F0325050
:100AB000070DF350060FD96EDA6ADE2A000EDD222A
:100AC0003250070DF350040FD96EDA6A3250070D19
:100AD000F350060FE16EE26ADE50E65CDE50E65847
:100AE000D8A075EF05F077EF05F087EF05F03250ED
:100AF000070DF350060FD96EDA6ADE6ADD6A3250EE
:100B0000070DF350080FD96EDA6A010EDF6E322A34
:100B10002D50325CD8A08FEF05F091EF05F057EF24
:100B200005F01200406E4050080DF3CF39F0060E6C
:100B300039263950010F3A6E3AC0F6FF080EF76EAB
:100B40000800F5CF3BF04050080DF3CF3CF0020E0B
:100B50003C263C50010F3D6E3DC0F6FF080EF76E7F
:100B60000900F5CF3EF00900F5CF3FF03EC0D9FFB8
:100B70003FC0DAFFDF503B140009D8B4C2EF05F0E4
:100B8000C4EF05F0C7EF05F0010EC8EF05F0000E49
:100B90001200496AF4EF05F04950070DF350080FB1
:100BA000D96EDA6ADE04D8A4D8EF05F0DAEF05F0E2
:100BB000F3EF05F04950070DF350080FD96EDA6ACC
:100BC000DF6A4950070DF350020FD96EDA6A02D876
:100BD000F3EF05F00500FA6EDE50FD6EDE50FE6E9E
:100BE000FF6AFA501200492A2D50495CD8A0FBEF49
:100BF00005F0FDEF05F0CCEF05F012003C6E3C5027
:100C0000040DF3CF3AF0010E3A263A50290F3B6E0D
:100C10003BC0F6FF080EF76E0800F550E806D8A4B2
:100C200014EF06F016EF06F022EF06F03904D8B400
:100C30001CEF06F01FEF06F0010E20EF06F0000E8D
:100C40002CEF06F03950D8B428EF06F02BEF06F061
:100C5000010E2CEF06F0000E1200050E2D6033EF92
:100C600006F035EF06F058EF06F02D50070DF35063
:100C7000020FD96EDA6A39C0DEFF3AC0DDFF2D50AF
:100C8000070DF350040FD96EDA6A3BC0DEFF3CC09B
:100C9000DDFF2D50070DF350060FD96EDA6ADE6ABC
:100CA000DD6A2D50070DF350080FD96EDA6ADF6A3E
:100CB0002D2A1200436A4350040DF350290F416E50
:100CC00041C0F6FF080EF76E0800F55092EC05F0F3
:100CD000426E43502B0FD96EDA6A42C0DFFF435099
:100CE000020DF350250FD96EDA6ADE6ADD6A4350D1
:100CF000290FD96EDA6ADF6A432A010E436483EF53
:100D000006F085EF06F05BEF06F01200396A395005
:100D1000070DF350020FD96EDA6ADE6ADD6A3950C8
:100D2000070DF350040FD96EDA6ADE6ADD6A3950B6
:100D3000070DF350060FD96EDA6ADE6ADD6A3950A4
:100D4000070DF350080FD96EDA6ADF6A392A040EEC
:100D50003964ADEF06F0AFEF06F087EF06F02D6ACD
:100D600012000600E1CF33F0E2CF34F0D9CF35F0F6
:100D7000DACF36F0F3CF37F0F4CF38F0F2A4C3EF88
:100D800006F0C5EF06F0CAEF06F03AEC07F054ECB7
:100D900005F0F29438C0F4FF37C0F3FF36C0DAFF35
:100DA00035C0D9FF34C0E2FF33C0E1FF019211002A
:100DB00019EC04F05AEC06F086EC06F021EC07F092
:100DC00045EC07F042EC07F07E0E396E0E0E3A6EDF
:100DD0003C6A0A0E3B6E2DEC06F0F80E396E0D0ED5
:100DE0003A6E3C6A050E3B6E2DEC06F0C9EC05F040
:100DF000F6EF06F007EF00F0000E2EEC07F0E80625
:100E0000D8A405EF07F007EF07F00EEF07F0010E8B
:100E1000396E010EF5EC04F013EF07F0000E396E99
:100E2000010EF5EC04F0120000EE02F02C0EEE6A5A
:100E3000E806FDE101900192000EF86E0001D8EF86
:100E400006F0D56AD59CD59AD596D550F80B0109F0
:100E5000D56E35EC07F0F294F28A1200396E3950F3
:100E6000290FD96EDA6ADF501200FB0ED76E1E0E04
:100E7000D66E1200FB0ED76E1E0ED66E120088ECD8
:0E0E800004F01200F28EF28C1200D58E1200D9
:020000040030CA
:08000000000C1E1EFF8181FFB0
:00000001FF
